:03000000020003F8
:0C000300787FE4F6D8FD75812002004AE9
:0A0255003F065B4F666D7D077F6F6B
:0602680004080000000084
:04025F00D296D297CA
:05026300000000002274
:0B02350012025FC296120263C2972201
:0F020900C296D297120263D296120263C2972254
:1001B500E4FEEEC39408748094805012EF33929657
:1001C500D297120263C297EF25E0FF0E80E4020288
:0101D50063C6
:030218001201B51B
:0C021B0012025FA2969200C297020263DA
:1001D6007E08AD061EED601612025FEF25E0FF30C9
:0E01E600960543070180035307FEC29780E48D
:0101F40022E8
:0E022700C296D297120263D296C29702026369
:0A024B0012025FC296C2970202631E
:02013500AD0714
:100137001202357F901202183000037F0022AF05AC
:100147001202183000037F00221202091202357FC3
:10015700911201B512021B3000037F00221201D653
:0F016700780CA60712022712024B120209E6FFBC
:010176002266
:1000E400EF75F0C4A4FBAAF07C277D10FFAE0212CA
:1000F400008F8F0B7C037DE8AF03AE0212008F7C70
:10010400007D0A12008F8D0A7C007D64AF03AE026D
:1001140012008F7C007D0A12008F8D09AE02AF039E
:100124007C007D0A12008F7C007D0A12008F8D08EE
:0101340022A8
:100177007F01E4FEEEC3940474809480502F75A031
:100187000F74082EF8E690025593F5B0EFF4F5A03A
:10019700EE64037002D2B7E4FDEDC39464748094F7
:0D01A7008050030D80F3EF25E0FF0E80C7B0
:0101B4002228
:0B024000EF1FAC0670011E4C70F62290
:1001F500E4FF1201351200E41201777FE87E031255
:04020500024080EC47
:10000F000201F5E493A3F8E493A34003F68001F211
:10001F0008DFF48029E493A3F85407240CC8C333F2
:10002F00C4540F4420C8834004F456800146F6DFC1
:10003F00E4800B0102040810204080900268E47EE7
:10004F00019360BCA3FF543F30E509541FFEE493B6
:10005F00A360010ECF54C025E060A840B8E493A37D
:10006F00FAE493A3F8E493A3C8C582C8CAC583CAA8
:10007F00F0A3C8C582C8CAC583CADFE9DEE780BE60
:01026E00008F
:10008F00BC000BBE0029EF8DF084FFADF022E4CC55
:10009F00F875F008EF2FFFEE33FEEC33FCEE9DEC1E
:1000AF00984005FCEE9DFE0FD5F0E9E4CEFD22ED64
:1000BF00F8F5F0EE8420D21CFEADF075F008EF2FAE
:1000CF00FFED33FD4007985006D5F0F222C398FD9F
:0500DF000FD5F0EA223C
:00000001FF
