:030000000200F902
:0C00F900787FE4F6D8FD75812C020140F0
:10026A00C0F9A4B0999282F880908883C6A1868E3C
:03027A00BF8C86B0
:10025700101DEEDEBE7EEDDDBD7DEBDBBB7BE7D7A4
:02026700B77767
:10018500E4F509780A7C00FD7BFF7A02796AFE7F37
:10019500101200D3781A7C007D007BFF7A02797AF1
:1001A5007E007F031200D3851A90D2B07580FF12AE
:1001B50001EF8F08EF3395E0FEEFF47002EEF46087
:1001C500EEEF64084E700D740A2F120244851B90E1
:1001D500C2B0800E740A2508120244851C90D2B064
:0A01E5000509E509640370C780FEF8
:08024400F8E6F5907F507EC33F
:0B024C00EF1FAC0670011E4C70F62284
:1001EF007DFF75800FAF80EFFB3395E0FAEB640F67
:1001FF004A603F7FE87E0312024CAF80EFFB3395DE
:10020F00E0FAEB640F4A602A7580F0AE80EF4EFF84
:10021F00E4FEEEFB3395E0FAC3EB9410EA648094AE
:10022F0080500F741D2EF8E6B50704AD0680030E3F
:04023F0080E0AF05A7
:010243002298
:10010500020185E493A3F8E493A34003F68001F28A
:1001150008DFF48029E493A3F85407240CC8C333FB
:10012500C4540F4420C8834004F456800146F6DFCA
:10013500E4800B0102040810204080900257E47E01
:10014500019360BCA3FF543F30E509541FFEE493BF
:10015500A360010ECF54C025E060A840B8E493A386
:10016500FAE493A3F8E493A3C8C582C8CAC583CAB1
:10017500F0A3C8C582C8CAC583CADFE9DEE780BE69
:010269000094
:10000300E709F608DFFA8046E709F208DFFA803EDF
:1000130088828C83E709F0A3DFFA8032E309F608CC
:10002300DFFA8078E309F208DFFA807088828C8334
:10003300E309F0A3DFFA806489828A83E0A3F608E8
:10004300DFFA805889828A83E0A3F208DFFA804CC2
:1000530080D280FA80C680D4806980F28033801099
:1000630080A680EA809A80A880DA80E280CA803302
:1000730089828A83ECFAE493A3C8C582C8CCC5837A
:10008300CCF0A3C8C582C8CCC583CCDFE9DEE7804A
:100093000D89828A83E493A3F608DFF9ECFAA9F0C9
:1000A300EDFB2289828A83ECFAE0A3C8C582C8CC1F
:1000B300C583CCF0A3C8C582C8CCC583CCDFEADE38
:1000C300E880DB89828A83E493A3F208DFF980CC9A
:1000D30088F0EF60010E4E60C388F0ED2402B40493
:1000E3000050B9F582EB2402B4040050AF2323453A
:0600F3008223900053730C
:00000001FF
