:03000000020227D2
:0C022700787FE4F6D8FD75812002026E9D
:10000300303132333435363738393A436C6F636BBA
:0100130000EC
:0C037F00011E00011D00011F00012000F4
:03001B000202B32B
:1002B300C0E0051E758DFC758B18E51E6414702057
:1002C300F51E051DE51D643C7016F51D051FE51F94
:1002D300643C700CF51F0520E52064187002F520BE
:0302E300D0E03236
:10001E0078087C007D007BFF7A0079037E007F0BE1
:10002E0012020178137C007D007BFF7A00790E7E30
:10003E00007F061202017590FF1203667FFF7E009D
:10004E0012038C438910758DFC758B18D2AFD2AB11
:10005E00D28E7F861202E67FFF7E0012038CE4F5BD
:10006E001974132519F8E6FF600E1203157FC87E6A
:10007E000012038C051980E97FC41202E67FFF7E11
:10008E000012038CE52075F00A842408F8E6FF12AE
:10009E0003157FC87E0012038CE52075F00A847468
:1000AE000825F0F8E6FF1203157FC87E0012038CB8
:1000BE00AF121203157FC87E0012038CE51F75F078
:1000CE000A842408F8E6FF1203157FC87E00120387
:1000DE008CE51F75F00A84740825F0F8E6FF12030C
:1000EE00157FC87E0012038CAF121203157FC87ED7
:1000FE000012038CE51D75F00A842408F8E6FF1241
:10010E0003157FC87E0012038CE51D75F00A8474FA
:10011E000825F0F8E6FF1203157FC87E0012038C47
:03012E0002008646
:100366007F3C1202E67F0C1202E67F061202E67F4F
:09037600011202E67F800202E69A
:10034400D2B1120014C2B0120014D2B21200148539
:10035400901C120014C2B2120014C2B1120014AFE5
:010364001C7C
:010365002275
:0202E6008F1A6D
:1002E8001203448F1B531B807F027E0012038CE590
:1002F8001B70EDC2B1120014C2B0120014D2B212B7
:0D0308000014851A90120014C2B2020014F5
:020315008F1A3D
:100317001203448F1B531B807F027E0012038CE560
:100327001B70EDC2B1120014D2B0120014D2B21277
:0D0337000014851A90120014C2B2020014C6
:0400140000000022C6
:0B038C00EF1FAC0670011E4C70F62243
:1002330002001EE493A3F8E493A34003F68001F2C3
:1002430008DFF48029E493A3F85407240CC8C333CC
:10025300C4540F4420C8834004F456800146F6DF9B
:10026300E4800B010204081020408090037FE47EA9
:10027300019360BCA3FF543F30E509541FFEE49390
:10028300A360010ECF54C025E060A840B8E493A357
:10029300FAE493A3F8E493A3C8C582C8CAC583CA82
:1002A300F0A3C8C582C8CAC583CADFE9DEE780BE3A
:01038B000071
:10013100E709F608DFFA8046E709F208DFFA803EB0
:1001410088828C83E709F0A3DFFA8032E309F6089D
:10015100DFFA8078E309F208DFFA807088828C8305
:10016100E309F0A3DFFA806489828A83E0A3F608B9
:10017100DFFA805889828A83E0A3F208DFFA804C93
:1001810080D280FA80C680D4806980F2803380106A
:1001910080A680EA809A80A880DA80E280CA8033D3
:1001A10089828A83ECFAE493A3C8C582C8CCC5834B
:1001B100CCF0A3C8C582C8CCC583CCDFE9DEE7801B
:1001C1000D89828A83E493A3F608DFF9ECFAA9F09A
:1001D100EDFB2289828A83ECFAE0A3C8C582C8CCF0
:1001E100C583CCF0A3C8C582C8CCC583CCDFEADE09
:1001F100E880DB89828A83E493A3F208DFF980CC6B
:1002010088F0EF60010E4E60C388F0ED2402B40463
:100211000050B9F582EB2402B4040050AF2323450A
:06022100822390018173AD
:00000001FF
