:030000000200EB10
:0C00EB00787FE4F6D8FD75810B0201322D
:0A01B7003F065B4F666D7D077F6F0A
:0C01AA00010800010900010B00010A001F
:03001B0002017768
:10017700C0E00508758DEC758B78E5086414702070
:10018700F5080509E509643C7016F509050BE50B4B
:10019700643C700CF50B050AE50A64187002F50A51
:0301A700D0E03273
:10001E0075A0FFE50975F00A84E5F09001B793F538
:10002E009075A0FEE4FFEFC3943274809480500369
:10003E000F80F375A0FFE50975F00A849001B79360
:10004E00F59075A0FDE4FFEFC39432748094805058
:10005E00030F80F375A0FFE50B75F00A84E5F090B1
:10006E0001B793F59075A0FBE4FFEFC39432748053
:10007E00948050030F80F375A0FFE50B75F00A8492
:10008E009001B793F59075A0F7E4FFEFC394327427
:10009E0080948050030F80F375A0FFE50A75F00A77
:1000AE0084E5F09001B793F59075A0EFE4FFEFC3F0
:1000BE0094327480948050030F80F375A0FFE50A8C
:1000CE0075F00A849001B793F59075A0DFE4FFEF09
:0C00DE00C394327480948050030F80F3B0
:0100EA0022F3
:10000300758910758D3C758BB0D2AFD2ABD28E1281
:04001300001E80FB50
:1000F700020003E493A3F8E493A34003F68001F21C
:1001070008DFF48029E493A3F85407240CC8C33309
:10011700C4540F4420C8834004F456800146F6DFD8
:10012700E4800B01020408102040809001AAE47EBD
:10013700019360BCA3FF543F30E509541FFEE493CD
:10014700A360010ECF54C025E060A840B8E493A394
:10015700FAE493A3F8E493A3C8C582C8CAC583CABF
:10016700F0A3C8C582C8CAC583CADFE9DEE780BE77
:0101B6000048
:00000001FF
