:030000000200F902
:0C00F900787FE4F6D8FD75812B020140F1
:10024400C0F9A4B0999282F880908883C6A1868E62
:03025400BF8C86D6
:10023100101CD7EEDEBEEDDDBDEBDBBB7E7D7BE7CB
:02024100B7778D
:1001E10078097C007D007BFF7A0279447E007F10D4
:1001F1001200D378197C007D007BFF7A0279547E4E
:10020100007F031200D3851990D2B07580FF1201CF
:10021100858F08EF3395E0FEEFF47002EEF460EEA7
:1002210074092FF8E6F5907F507EC312025780DEE5
:0B025700EF1FAC0670011E4C70F62279
:100185007DFF75800FAF80EFFB3395E0FAEB640FD1
:100195004A60467FE87E03120257AF80EFFB339536
:1001A500E0FAEB640F4A60317580F0AE80EF4EFFE8
:1001B500E4FEEEFB3395E0FAC3EB9410EA64809419
:1001C50080500F741C2EF8E6B50704AD0680030EAB
:0B01D50080E0AF80EF64F070F9AF0530
:0101E00022FC
:100105000201E1E493A3F8E493A34003F68001F22E
:1001150008DFF48029E493A3F85407240CC8C333FB
:10012500C4540F4420C8834004F456800146F6DFCA
:10013500E4800B0102040810204080900231E47E27
:10014500019360BCA3FF543F30E509541FFEE493BF
:10015500A360010ECF54C025E060A840B8E493A386
:10016500FAE493A3F8E493A3C8C582C8CAC583CAB1
:10017500F0A3C8C582C8CAC583CADFE9DEE780BE69
:0102430000BA
:10000300E709F608DFFA8046E709F208DFFA803EDF
:1000130088828C83E709F0A3DFFA8032E309F608CC
:10002300DFFA8078E309F208DFFA807088828C8334
:10003300E309F0A3DFFA806489828A83E0A3F608E8
:10004300DFFA805889828A83E0A3F208DFFA804CC2
:1000530080D280FA80C680D4806980F28033801099
:1000630080A680EA809A80A880DA80E280CA803302
:1000730089828A83ECFAE493A3C8C582C8CCC5837A
:10008300CCF0A3C8C582C8CCC583CCDFE9DEE7804A
:100093000D89828A83E493A3F608DFF9ECFAA9F0C9
:1000A300EDFB2289828A83ECFAE0A3C8C582C8CC1F
:1000B300C583CCF0A3C8C582C8CCC583CCDFEADE38
:1000C300E880DB89828A83E493A3F208DFF980CC9A
:1000D30088F0EF60010E4E60C388F0ED2402B40493
:1000E3000050B9F582EB2402B4040050AF2323453A
:0600F3008223900053730C
:00000001FF
