:030000000200F209
:0C00F200787FE4F6D8FD7581200200A59F
:04011300D296D29717
:050117000000000022C1
:0B00FE00120113C296120117C29722D4
:0F00D500C296D297120117D296120117C2972224
:10006500E4FEEEC39408748094805012EF339296A8
:10007500D297120117C297EF25E0FF0E80E4020127
:010085001763
:0800C1001200FE7F90120065A1
:0C00C900120113A2969200C297020117C8
:100086007E08AD061EED6016120113EF25E0FF3067
:0E009600960543070180035307FEC29780E4DE
:0100A4002239
:0E00E400C296D297120117D296C29702011748
:0A010900120113C296C297020117FB
:02000300AD0747
:100005001200C13000037F0022AF05120065120007
:10001500C93000037F00221200D51200FE7F911225
:1000250000651200C93000037F002212008678089F
:0D003500A6071200E41201091200D5E6FF33
:01004200229B
:10004300AC071200C1200019AF041200651200C9E9
:1000530020000EAF051200651200C9200003120034
:02006300D522A4
:1000A500E4FF120003AD077F40120043E4FFFE0F9B
:0C00B500BF00010EBE27F8BF10F580E46C
:00000001FF
