:030000000200CD2E
:0C00CD00787FE4F6D8FD75812002000366
:0400E400D296D29747
:0500E8000000000022F1
:0B00D9001200E4C2961200E8C2972259
:0F00AF00C296D2971200E8D2961200E8C29722AA
:10006F00E4FEEEC39408748094805012EF3392969E
:10007F00D2971200E8C297EF25E0FF0E80E402004E
:01008F00E888
:0300BE0012006FBE
:0C00C1001200E4A2969200C2970200E830
:100090007E08AD061EED60161200E430960543079B
:0E00A0000180035307FEC297EF25E0FF80E4C6
:0100AE00222F
:10004B00AC071200D97F901200BE200016AF04122D
:10005B0000BE20000EAF0512006F1200C12000037E
:04006B001200AF22AE
:10000300E4F9E9C394FF748094805018AD017F40F4
:1000130012004BE4FAFB0BBB00010ABA0BF8BBB8A6
:10002300F50980DE79FFE9D394007480948040D091
:10003300AD017F4012004BE4FAFB0BBB00010ABA8F
:080043000BF8BBB8F51980DED3
:00000001FF
