:030000000200C536
:0C00C500787FE4F6D8FD7581200200036E
:0400DC00D296D2974F
:0500E0000000000022F9
:0B00D1001200DCC2961200E0C2972271
:0F009800C296D2971200E0D2961200E0C29722D1
:10005800E4FEEEC39408748094805012EF339296B5
:10006800D2971200E0C297EF25E0FF0E80E402006D
:01007800E0A7
:0300A700120058EC
:0C00AA001200DCA2969200C2970200E057
:100079007E08AD061EED60161200DC3096054307BA
:0E0089000180035307FEC297EF25E0FF80E4DD
:010097002246
:10003400AC071200D17F901200A7200016AF041263
:1000440000A720000EAF051200581200AA200003DA
:0400540012009822DC
:0400B6007FE87E035E
:0B00BA00EF1FAC0670011E4C70F62218
:100003007B7D20B00F1200B620B00974052BFBF4E2
:1000130070027B7D20B10E1200B620B10874FB2B59
:10002300FB70027B7DAD037F401200341200B6806B
:01003300D1FB
:00000001FF
