:0300000002021ADF
:0C021A00787FE4F6D8FD75814402026193
:1003C30070617373776F72643A0070617373006561
:0503D30072726F720060
:100361001012EEDEBE7EEDDDBD7DEBDBBB7BE7D7A4
:10037100B77706220102030405060A0800000000FF
:0603810000000000000076
:10000300E4F52AF52C782D7C00FD7BFF7A0379C378
:10001300FE7F0A1201F478377C007D007BFF7A03B0
:1000230079CD7E007F051201F4783C7C007D007B56
:10003300FF7A0379D27E007F061201F4D2A0758085
:10004300FF1203AA7FC87E001203D87F8012030326
:100053007FC87E001203D8E4F528742D2528F8E61E
:10006300FF600E1203327FC87E001203D80528807A
:10007300E91202A68F2BEF3395E0FEEFF47002EE48
:10008300F460EEC3EE648094804025D3EF9409EED0
:1000930064809480501A7408252CF8A62B7FC87EA0
:1000A300001203D8E52B2430FF120332052C80C144
:1000B300AF2BEF3395E0FEEF640B4E70B4752A015E
:1000C300E52C64066002801EE4F528C3E528940647
:1000D30074809480501974222528F8E6FF7408254B
:1000E30028F8E66F6005E4F52A8004052880DCE53E
:1000F3002A640160030200747FCA1203037FC87E6F
:10010300001203D8E4F52974372529F8E6FF7003B4
:100113000200741203327FC87E001203D8052980BF
:01012300E6F5
:1002A6007542FF75800FAF80EFFD3395E0FCED647E
:1002B6000F4C60467FE87E031203D8AF80EFFD3314
:1002C60095E0FCED640F4C60317580F0AE80EF4E2A
:1002D600FFE4FEEEFD3395E0FCC3ED9410EC648084
:1002E6009480500F74122EF8E6B507048E428003F0
:0C02F6000E80E0AF80EF64F070F9AF42C2
:0103020022D8
:1003AA007F3C1203037F0C1203037F061203037FB1
:0903BA00011203037F800203031A
:10038800D2B11203E3C2B01203E3D2B21203E3857F
:1003980090441203E3C2B21203E3C2B11203E3AF03
:0103A8004410
:0103A9002231
:020303008F4227
:100305001203888F435343807F027E001203D8E592
:100315004370EDC2B11203E3C2B01203E3D2B212CD
:0D03250003E38542901203E3C2B20203E33A
:020332008F42F8
:100334001203888F435343807F027E001203D8E563
:100344004370EDC2B11203E3D2B01203E3D2B2128E
:0D03540003E38542901203E3C2B20203E30B
:0403E30000000022F4
:0B03D800EF1FAC0670011E4C70F622F7
:10022600020003E493A3F8E493A34003F68001F2EB
:1002360008DFF48029E493A3F85407240CC8C333D9
:10024600C4540F4420C8834004F456800146F6DFA8
:10025600E4800B0102040810204080900361E47ED4
:10026600019360BCA3FF543F30E509541FFEE4939D
:10027600A360010ECF54C025E060A840B8E493A364
:10028600FAE493A3F8E493A3C8C582C8CAC583CA8F
:10029600F0A3C8C582C8CAC583CADFE9DEE780BE47
:010387000075
:10012400E709F608DFFA8046E709F208DFFA803EBD
:1001340088828C83E709F0A3DFFA8032E309F608AA
:10014400DFFA8078E309F208DFFA807088828C8312
:10015400E309F0A3DFFA806489828A83E0A3F608C6
:10016400DFFA805889828A83E0A3F208DFFA804CA0
:1001740080D280FA80C680D4806980F28033801077
:1001840080A680EA809A80A880DA80E280CA8033E0
:1001940089828A83ECFAE493A3C8C582C8CCC58358
:1001A400CCF0A3C8C582C8CCC583CCDFE9DEE78028
:1001B4000D89828A83E493A3F608DFF9ECFAA9F0A7
:1001C400EDFB2289828A83ECFAE0A3C8C582C8CCFD
:1001D400C583CCF0A3C8C582C8CCC583CCDFEADE16
:1001E400E880DB89828A83E493A3F208DFF980CC78
:1001F40088F0EF60010E4E60C388F0ED2402B40471
:100204000050B9F582EB2402B4040050AF23234517
:06021400822390017473C7
:00000001FF
