:03000000020143B7
:0C014300787FE4F6D8FD75813202018A55
:1003690070617373776F72643A00706173730065BB
:1003790072726F720070617373776F726420736544
:050389007475703A00DC
:100342001012D7EBDBBBEDDDBDEEDEBEE7B77E7D87
:100352007B7706220102030405060A08000000005A
:0603620000000000000095
:10000300E4F529D2A07580FF1203B07FC87E0012E9
:1000130003C97F8012028E7FC87E001203C91203B8
:10002300191202318F28EF3395E0FEEFF47002EEE0
:10003300F460EEC3EE64809480402DD3EF9409EE18
:100043006480948050227FC87E001203C9E529246E
:1000530089FF12028EE5282430FF1202BD740825A1
:1000630029F8A628052980B9AF28EF3395E0FEEFDC
:10007300640B4E70AC7F01E529640660031F802189
:10008300E4FEEEC3940674809480501574222EF817
:10009300E6FD74082EF8E66D6004E4FF80030E802D
:1000A300E1EF640170607FCA12028E7FC87E001286
:1000B30003C97BFF7A03797312031FC2A0120231B3
:1000C3008F28EF3395E0FEEFF47002EEF460EE75E7
:1000D30080F0AF80EF64F070F9AF28EF3395E0FE66
:1000E300EF640F4E60030200241201CF7F507EC3E2
:1000F3001203C97F0112028E7F8012028E1203192E
:10010300E4F5290200247FCA12028E7FC87E001202
:1001130003C97BFF7A03797812031FD2A01202313D
:10012300EF3395E0FEEFF47002EEF460F07F01121E
:10013300028E7F8012028E120319E4F52902002435
:10023100752CFF75800FAF80EFFD3395E0FCED6409
:100241000F4C60467FE87E031203C9AF80EFFD3398
:1002510095E0FCED640F4C60317580F0AE80EF4E9F
:10026100FFE4FEEEFD3395E0FCC3ED9410EC6480F9
:100271009480500F74122EF8E6B507048E2C80037B
:0C0281000E80E0AF80EF64F070F9AF2C4D
:01028D00224E
:060319007BFF7A03796905
:06031F008B2C8A2D892EB3
:10032500E4F52FAB2CAA2DA92E852F8275830012FB
:0C03350002ECFF60071202BD052F80E7FC
:010341002299
:1001CF00E4F52B7F0112028E7F8012028E7BFF7A65
:1001DF0003797E12031F7FC012028E1202318F2A03
:1001EF00EF3395E0FEEFF47002EEF460EE7F2A122B
:1001FF0002BDAF2AEF3395E0FEC3648094804012B6
:10020F00D3EF9409EE6480948050077422252BF865
:10021F00A62A052BAF2BEF3395E0FEEF64064E7049
:01022F00BA14
:0102300022AB
:1003B0007F3C12028E7F0C12028E7F0612028E7F0D
:0903C0000112028E7F8002028E00
:10038E00D2B11203D4C2B01203D4D2B21203D485A6
:10039E0090321203D4C2B21203D4C2B11203D4AF3C
:0103AE00321C
:0103AF00222B
:02028E008F2CB3
:1002900012038E8F2D532D807F027E001203C9E53D
:1002A0002D70EDC2B11203D4C2B01203D4D2B21277
:0D02B00003D4852C901203D4C2B20203D4F3
:0202BD008F3080
:1002BF0012038E8F315331807F027E001203C9E506
:1002CF003170EDC2B11203D4D2B01203D4D2B21234
:0D02DF0003D48530901203D4C2B20203D4C0
:0403D4000000002203
:0B03C900EF1FAC0670011E4C70F62206
:10014F00020003E493A3F8E493A34003F68001F2C3
:10015F0008DFF48029E493A3F85407240CC8C333B1
:10016F00C4540F4420C8834004F456800146F6DF80
:10017F00E4800B0102040810204080900342E47ECB
:10018F00019360BCA3FF543F30E509541FFEE49375
:10019F00A360010ECF54C025E060A840B8E493A33C
:1001AF00FAE493A3F8E493A3C8C582C8CAC583CA67
:1001BF00F0A3C8C582C8CAC583CADFE9DEE780BE1F
:010368000094
:1002EC00BB010CE58229F582E5833AF583E02250C7
:1002FC0006E92582F8E622BBFE06E92582F8E22211
:0D030C00E58229F582E5833AF583E493222A
:00000001FF
