:03000000020115E5
:0C011500787FE4F6D8FD75813202015CB1
:1003140070617373776F72643A0070617373006510
:0503240072726F72000F
:1002B2001012EEDEBE7EEDDDBD7DEBDBBB7BE7D754
:1002C200B77706220102030405060A0800000000AF
:0602D20000000000000026
:10000300E4F52AF52BD2A07580FF1202FB7FC87E90
:10001300001203297F801201FE7FC87E001203298C
:100023001202891201A18F29EF3395E0FEEFF470DC
:1000330002EEF460EEC3EE64809480402DD3EF941F
:1000430009EE6480948050227408252AF8A6297F3B
:10005300C87E00120329E52A2489FF1201FEE5293F
:100063002430FF12022D052A80B9AF29EF3395E022
:10007300FEEF640A4E706F752801E52A640660027C
:10008300801AE4FFEFC394067480948050167422A0
:100093002FF8E6FE74082FF8E66E6005E4F5288075
:1000A300030F80E0E5286401701A7FCA1201FE7F06
:1000B300C87E001203297BFF7A03791E12028FC2C6
:1000C300A00200267FCA1201FE7FC87E0012032908
:1000D3007BFF7A03792312028FD2A0E52B6402609F
:1000E3000302002680F5AF29EF3395E0FEEF640BA2
:1000F3004E6003020026E52860030200267F0112FA
:1001030001FE7F801201FE120289E4F52A052B020B
:020113000026C4
:1001A100752CFF75800FAF80EFFD3395E0FCED649A
:1001B1000F4C60467FE87E03120329AF80EFFD33C9
:1001C10095E0FCED640F4C60317580F0AE80EF4E30
:1001D100FFE4FEEEFD3395E0FCC3ED9410EC64808A
:1001E1009480500F74122EF8E6B507048E2C80030C
:0C01F1000E80E0AF80EF64F070F9AF2CDE
:0101FD0022DF
:060289007BFF7A037914EB
:06028F008B2C8A2D892E44
:10029500E4F52FAB2CAA2DA92E852F82758300128C
:0C02A500025CFF600712022D052F80E7AD
:0102B100222A
:1002FB007F3C1201FE7F0C1201FE7F061201FE7F76
:09030B00011201FE7F800201FED7
:1002D900D2B1120334C2B0120334D2B2120334853C
:1002E9009032120334C2B2120334C2B1120334AFD2
:0102F90032D2
:0102FA0022E1
:0201FE008F2C44
:100200001202D98F2D532D807F027E00120329E523
:100210002D70EDC2B1120334C2B0120334D2B21247
:0D0220000334852C90120334C2B202033463
:02022D008F3010
:10022F001202D98F315331807F027E00120329E5EC
:10023F003170EDC2B1120334D2B0120334D2B21204
:0D024F000334853090120334C2B202033430
:0403340000000022A3
:0B032900EF1FAC0670011E4C70F622A6
:10012100020003E493A3F8E493A34003F68001F2F1
:1001310008DFF48029E493A3F85407240CC8C333DF
:10014100C4540F4420C8834004F456800146F6DFAE
:10015100E4800B01020408102040809002B2E47E8A
:10016100019360BCA3FF543F30E509541FFEE493A3
:10017100A360010ECF54C025E060A840B8E493A36A
:10018100FAE493A3F8E493A3C8C582C8CAC583CA95
:10019100F0A3C8C582C8CAC583CADFE9DEE780BE4D
:0102D8000025
:10025C00BB010CE58229F582E5833AF583E0225057
:10026C0006E92582F8E622BBFE06E92582F8E222A1
:0D027C00E58229F582E5833AF583E49322BB
:00000001FF
