:03000000020A3CB5
:0C0A3C00787FE4F6D8FD75812002099C4B
:1008D0000000F8494A4C48F8484C4A49F8000000E2
:1008E00010101312121212FF121212121310100013
:1008F000000000FE20202020203F2020202000009B
:100900000080601F020202020202FE0000000000DE
:100910001010D0FF901000FE020202FE0000000046
:10092000040300FF0083601F0000003F4040780088
:10093000101010FF109008888888FF8888880800A9
:100940000444827F01808040432C1028468180002F
:100950000010101010D030FF30D0121C101000000A
:1009600010080402010000FF00000102040810004A
:1009E800C2A2D2A1E4F590D2A0AF90C2A0530780D2
:0909F800EF7003D38001C350EB42
:010A010022D2
:100A1C00AE071209E8C2A1C2A28E90D2A0C2A02237
:100A2C00AE071209E8C2A1D2A28E90D2A0C2A02217
:090A48005307074307B8020A1C1A
:090A510053073F430740020A1C51
:090A5A005307074307C0020A1C00
:060A630043073E020A1CDD
:100A0200EF14600C14600E2402700ED2A4D2A32242
:0A0A1200C2A4D2A322D2A4C2A322E0
:10097000120A02E4FDEDC3940874809480501CAF09
:1009800005120A48E4FCECC39480748094805008FB
:0B099000E4FF120A2C0C80EE0D80DA50
:01099B002239
:1009C3007FFAAE071FEE70FAFF120A02120A63E4FF
:1009D300FF120970E4FF120A020F120A63E4FF1206
:0509E3000A02020A5A9D
:060800008D09AC07A903FD
:10080600E4FDEDFF7E00C3942074809480400302D3
:1008160008CFE9C43354E024D030001AF582E4341A
:1008260008F583E5822DF582E43583F583E4937537
:100836000A00F50B801AF582E43408F583E5822D6B
:10084600F582E43583F583E493F4F50BE4F4F50AD5
:10085600C3EF9410EE64809480502DEDFFEC2FFFD3
:10086600E433FEC3EF9440EE6480948050097F0128
:10087600120A02EC2D80097F02120A02EC2D24C016
:10088600FF120A51AF098035EDFFEC2FFFE433CF9D
:1008960024F0CF34FFFEC3EF9440EE648094805082
:1008A6000B7F01120A02EC2D24F080097F02120A46
:1008B60002EC2D24B0FF120A51E50904FF120A4882
:0908C600AF0B120A2C0D02080808
:0108CF002206
:10099C007508101209C3E4FAEAC3940574809480B4
:1009AC005014AB02C200E4FDAF081208007410250D
:0609BC0008F5080A80E2C4
:0109C2002212
:00000001FF
