:03000000020114E6
:0C011400787FE4F6D8FD75811402015BD1
:0A01EF00C0F9A4B0999282F8809044
:0601F900011400011300D7
:03001B000201D00F
:1001D000C0E00514758D3C758BB0E5146414700C8B
:0F01E000F5140513E51364647002F513D0E032D3
:0201A0008F08C6
:1001A20078097C007D007BFF7A0179EF7E007F0A6F
:1001B2001200EEE50875F00A842409F8E6F590E5E8
:0D01C2000875F00A84740925F0F8E6F5A030
:0101CF00220D
:10000300758910758D3C758BB0D2ABD2AFD28EAFE4
:06001300131201A080F9A8
:10012000020003E493A3F8E493A34003F68001F2F2
:1001300008DFF48029E493A3F85407240CC8C333E0
:10014000C4540F4420C8834004F456800146F6DFAF
:10015000E4800B01020408102040809001F9E47E45
:10016000019360BCA3FF543F30E509541FFEE493A4
:10017000A360010ECF54C025E060A840B8E493A36B
:10018000FAE493A3F8E493A3C8C582C8CAC583CA96
:10019000F0A3C8C582C8CAC583CADFE9DEE780BE4E
:0101FF0000FF
:10001E00E709F608DFFA8046E709F208DFFA803EC4
:10002E0088828C83E709F0A3DFFA8032E309F608B1
:10003E00DFFA8078E309F208DFFA807088828C8319
:10004E00E309F0A3DFFA806489828A83E0A3F608CD
:10005E00DFFA805889828A83E0A3F208DFFA804CA7
:10006E0080D280FA80C680D4806980F2803380107E
:10007E0080A680EA809A80A880DA80E280CA8033E7
:10008E0089828A83ECFAE493A3C8C582C8CCC5835F
:10009E00CCF0A3C8C582C8CCC583CCDFE9DEE7802F
:1000AE000D89828A83E493A3F608DFF9ECFAA9F0AE
:1000BE00EDFB2289828A83ECFAE0A3C8C582C8CC04
:1000CE00C583CCF0A3C8C582C8CCC583CCDFEADE1D
:1000DE00E880DB89828A83E493A3F208DFF980CC7F
:1000EE0088F0EF60010E4E60C388F0ED2402B40478
:1000FE000050B9F582EB2402B4040050AF2323451F
:06010E00822390006E73D5
:00000001FF
