:030000000200E11A
:0C00E100787FE4F6D8FD7581200200A2B3
:04010400D296D29726
:050108000000000022D0
:0B00F900120104C296120108C29722F7
:0F00D200C296D297120108D296120108C2972245
:10006200E4FEEEC39408748094805012EF339296AB
:10007200D297120108C297EF25E0FF0E80E4020139
:010082000875
:0800BE001200F97F90120062AC
:0C00C600120104A2969200C297020108E9
:100083007E08AD061EED6016120104309605430787
:0E0093000180035307FEC297EF25E0FF80E4D3
:0100A100223C
:0C00ED00C296D297120108D296C2972248
:08010D00120104C296C2972200
:02000300AD0747
:100005001200BE3000037F0022AF0512006212000D
:10001500C63000037F00221200F97F9112006212A0
:1000250000C63000037F00221200837808A607125D
:0A00350000ED12010D1200D2E6FFEB
:01003F00229E
:10004000AC071200BE200019AF041200621200C6F5
:1000500020000EAF051200621200C620000312003D
:02006000D222AA
:1000A200E4FF120003AD077F40120040E4FFFE0FA1
:0C00B200BF00010EBE27F8BF10F580E46F
:00000001FF
