:030000000202A851
:0C02A800787FE4F6D8FD7581320202EF89
:10046C0070617373776F72643A00706173730065B7
:10047C0072726F720070617373776F726420736540
:05048C007475703A00D8
:100445001012EEDEBE7EEDDDBD7DEBDBBB7BE7D7BF
:10045500B77706220102030405060A08000000001A
:0604650000000000000091
:10000300E4F529D2A07580FF1204B37FC87E0012E5
:1000130004CC7F801203917FC87E001204CC1204AB
:100023001C1203348F28EF3395E0FEEFF47002EED9
:10003300F460EEC3EE648094805003020104D3EFB6
:10004300940DEE6480948040030201047FC87E0017
:100053001204CCE5292489FF120391AF28EF3395CD
:10006300E0FEC364809480401ED3EF9402EE64806C
:1000730094805013E5282431FF1203C0E52804FFC0
:1000830074082529F8A607AF28EF3395E0FEC3EFE0
:100093009404EE64809480401AD3EF9406EE648057
:1000A3009480500FE5282430FF1203C074082529DB
:1000B300F8A628AF28EF3395E0FEC3EF9408EE646B
:1000C300809480401ED3EF940AEE64809480501392
:1000D300E528242FFF1203C0E52814FF74082529FF
:1000E300F8A607AF28EF3395E0FEEF640D4E700CD2
:1000F3007F301203C074082529F8E4F605290200AD
:1001030024AF28EF3395E0FEEF640E4E6003020048
:10011300247F01E529640660031F8021E4FEEEC30A
:10012300940674809480501574222EF8E6FD7408AA
:100133002EF8E66D6004E4FF80030E80E1EF6401B6
:1001430070607FCA1203917FC87E001204CC7BFFCC
:100153007A047976120422C2A01203348F28EF3373
:1001630095E0FEEFF47002EEF460EE7580F0AF8080
:10017300EF64F070F9AF28EF3395E0FEEF640F4EB4
:1001830060030200241201DF7F507EC31204CC7F80
:10019300011203917F8012039112041CE4F52902DA
:1001A30000247FCA1203917FC87E001204CC7BFF18
:1001B3007A04797B120422D2A0120334EF3395E040
:1001C300FEEFF47002EEF460F07F011203917F8082
:0C01D30012039112041CE4F52902002420
:10033400752CFF75800FAF80EFFD3395E0FCED6405
:100344000F4C60467FE87E031204CCAF80EFFD3390
:1003540095E0FCED640F4C60317580F0AE80EF4E9B
:10036400FFE4FEEEFD3395E0FCC3ED9410EC6480F5
:100374009480500F74122EF8E6B507048E2C800377
:0C0384000E80E0AF80EF64F070F9AF2C49
:01039000224A
:06041C007BFF7A04796CFD
:060422008B2C8A2D892EAF
:10042800E4F52FAB2CAA2DA92E852F8275830012F7
:0C04380003EFFF60071203C0052F80E7F0
:010444002295
:1001DF00E4F52B7F011203917F801203917BFF7A4D
:1001EF000479811204227FC01203911203348F2AE3
:1001FF00EF3395E0FEEFF47002EEF460EE7F2A121B
:10020F0003C0AF2AEF3395E0FEC36480948040169D
:10021F00D3EF9402EE64809480500BE52A04FF74B0
:10022F0022252BF8A607AF2AEF3395E0FEC3EF94F4
:10023F0004EE648094804012D3EF9406EE648094B1
:10024F008050077422252BF8A62AAF2AEF3395E0AA
:10025F00FEC3EF9408EE648094804016D3EF940AA7
:10026F00EE64809480500BE52A14FF7422252BF83E
:10027F00A607AF2AEF3395E0FEEF640D4E700774BB
:10028F0022252BF8E4F6052BAF2BEF3395E0FEEF8D
:08029F0064064E60030201FA3F
:0102A7002234
:1004B3007F3C1203917F0C1203917F061203917FFD
:0904C300011203917F80020391F4
:10049100D2B11204D7C2B01204D7D2B21204D78596
:1004A10090321204D7C2B21204D7C2B11204D7AF2C
:0104B1003218
:0104B2002227
:020391008F2CAF
:100393001204918F2D532D807F027E001204CCE531
:1003A3002D70EDC2B11204D7C2B01204D7D2B2126B
:0D03B30004D7852C901204D7C2B20204D7E3
:0203C0008F307C
:1003C2001204918F315331807F027E001204CCE5FA
:1003D2003170EDC2B11204D7D2B01204D7D2B21228
:0D03E20004D78530901204D7C2B20204D7B0
:0404D70000000022FF
:0B04CC00EF1FAC0670011E4C70F62202
:1002B400020003E493A3F8E493A34003F68001F25D
:1002C40008DFF48029E493A3F85407240CC8C3334B
:1002D400C4540F4420C8834004F456800146F6DF1A
:1002E400E4800B0102040810204080900445E47E61
:1002F400019360BCA3FF543F30E509541FFEE4930F
:10030400A360010ECF54C025E060A840B8E493A3D5
:10031400FAE493A3F8E493A3C8C582C8CAC583CA00
:10032400F0A3C8C582C8CAC583CADFE9DEE780BEB8
:01046B000090
:1003EF00BB010CE58229F582E5833AF583E02250C3
:1003FF0006E92582F8E622BBFE06E92582F8E2220D
:0D040F00E58229F582E5833AF583E4932226
:00000001FF
