:030000000200C536
:0C00C500787FE4F6D8FD7581200200036E
:0500D100000000002208
:0F009800D296D2971200D1C2961200D1C29722EF
:0F00A700C296D2971200D1D2961200D1C29722E0
:10006400E4FEEEC39408748094805012EF339296A9
:10007400D2971200D1C297EF25E0FF0E80E4020070
:01008400D1AA
:0300850012006402
:10008800D296D2971200D1A2969200C2970200D1BE
:10004000AC071200987F90120085200016AF0412B2
:10005000008520000EAF0512006412008820000306
:040060001200A722C1
:0400B6007FE87E035E
:0B00BA00EF1FAC0670011E4C70F62218
:100003007B7DAD037F401200401200B620B0151275
:1000130000B620B00F30B0FD1200B674052BFBF410
:1000230070027B7D20B1DB1200B620B1D530B1FD6B
:0D0033001200B674FB2BFB70C97B7D80C5ED
:00000001FF
