:03000000020219E0
:0C021900787FE4F6D8FD75814402026095
:1003C20070617373776F72643A0070617373006562
:0503D20072726F720061
:100360001012EEDEBE7EEDDDBD7DEBDBBB7BE7D7A5
:10037000B77706220102030405060A080000000000
:0603800000000000000077
:10000300E4F52AF52C782D7C00FD7BFF7A0379C279
:10001300FE7F0A1201F378377C007D007BFF7A03B1
:1000230079CC7E007F051201F3783C7C007D007B58
:10003300FF7A0379D17E007F061201F3D2A0758087
:10004300FF1203A97FC87E001203D77F8012030229
:100053007FC87E001203D7E4F528742D2528F8E61F
:10006300FF600E1203317FC87E001203D70528807C
:10007300E91202A58F2BEF3395E0FEEFF47002EE49
:10008300F460EEC3EE648094804024D3EF9409EED1
:1000930064809480501974082FF8A62B7FC87E00C3
:1000A3001203D7E52B2430FF120331052C80C2AF96
:1000B3002BEF3395E0FEEF640B4E70B5752A01E527
:1000C3002C64066002801EE4F528C3E528940674B8
:1000D300809480501974222528F8E6FF7408252897
:1000E300F8E66F6005E4F52A8004052880DCE52A3C
:1000F300640160030200747FCA1203027FC87E009A
:100103001203D7E4F52974372529F8E6FF700302B3
:1001130000741203317FC87E001203D7052980E6DD
:1002A5007542FF75800FAF80EFFD3395E0FCED647F
:1002B5000F4C60467FE87E031203D7AF80EFFD3316
:1002C50095E0FCED640F4C60317580F0AE80EF4E2B
:1002D500FFE4FEEEFD3395E0FCC3ED9410EC648085
:1002E5009480500F74122EF8E6B507048E428003F1
:0C02F5000E80E0AF80EF64F070F9AF42C3
:0103010022D9
:1003A9007F3C1203027F0C1203027F061203027FB5
:0903B900011203027F800203021D
:10038700D2B11203E2C2B01203E2D2B21203E28583
:1003970090441203E2C2B21203E2C2B11203E2AF07
:0103A7004411
:0103A8002232
:020302008F4228
:100304001203878F435343807F027E001203D7E595
:100314004370EDC2B11203E2C2B01203E2D2B212D0
:0D03240003E28542901203E2C2B20203E23E
:020331008F42F9
:100333001203878F435343807F027E001203D7E566
:100343004370EDC2B11203E2D2B01203E2D2B21291
:0D03530003E28542901203E2C2B20203E20F
:0403E20000000022F5
:0B03D700EF1FAC0670011E4C70F622F8
:10022500020003E493A3F8E493A34003F68001F2EC
:1002350008DFF48029E493A3F85407240CC8C333DA
:10024500C4540F4420C8834004F456800146F6DFA9
:10025500E4800B0102040810204080900360E47ED6
:10026500019360BCA3FF543F30E509541FFEE4939E
:10027500A360010ECF54C025E060A840B8E493A365
:10028500FAE493A3F8E493A3C8C582C8CAC583CA90
:10029500F0A3C8C582C8CAC583CADFE9DEE780BE48
:010386000076
:10012300E709F608DFFA8046E709F208DFFA803EBE
:1001330088828C83E709F0A3DFFA8032E309F608AB
:10014300DFFA8078E309F208DFFA807088828C8313
:10015300E309F0A3DFFA806489828A83E0A3F608C7
:10016300DFFA805889828A83E0A3F208DFFA804CA1
:1001730080D280FA80C680D4806980F28033801078
:1001830080A680EA809A80A880DA80E280CA8033E1
:1001930089828A83ECFAE493A3C8C582C8CCC58359
:1001A300CCF0A3C8C582C8CCC583CCDFE9DEE78029
:1001B3000D89828A83E493A3F608DFF9ECFAA9F0A8
:1001C300EDFB2289828A83ECFAE0A3C8C582C8CCFE
:1001D300C583CCF0A3C8C582C8CCC583CCDFEADE17
:1001E300E880DB89828A83E493A3F208DFF980CC79
:1001F30088F0EF60010E4E60C388F0ED2402B40472
:100203000050B9F582EB2402B4040050AF23234518
:06021300822390017373C9
:00000001FF
