:03000000020026D5
:0C002600787FE4F6D8FD75810E02006DB5
:0A011C003F065B4F666D7D077F6FA5
:0B0110000609000000000000010800CC
:10000300758920758BFD758DFDD28E759840D29CB8
:09001300D2AFD2AC1200B280FBA6
:1000B2007F01E4FEEEC3940674809480502875A0FC
:1000C2003F74092EF8E690011C93F590EFF4F5A029
:1000D200E4FDEDC394647480948050030D80F3EFCB
:0600E20025E0FF0E80CEB8
:0100E80022F5
:030023000200E9EF
:0900E900C0E0C0D075D000C000D9
:1000F200C2AFC29874092508F8A6990508E50864F4
:07010200067002F508D2AF00
:07010900D000D0D0D0E0329D
:10003200020003E493A3F8E493A34003F68001F2E1
:1000420008DFF48029E493A3F85407240CC8C333CF
:10005200C4540F4420C8834004F456800146F6DF9E
:10006200E4800B0102040810204080900110E47E1D
:10007200019360BCA3FF543F30E509541FFEE49393
:10008200A360010ECF54C025E060A840B8E493A35A
:10009200FAE493A3F8E493A3C8C582C8CAC583CA85
:1000A200F0A3C8C582C8CAC583CADFE9DEE780BE3D
:01011B0000E3
:00000001FF
