:03000000020911E1
:0C091100787FE4F6D8FD758120020843D1
:04092900D2A7D2A6D9
:05092D000000000022A3
:0D090400C2AF120929C2A712092DC2A622F6
:0F08E700C2A7D2A612092DD2A712092DC2A6228E
:0C091D00C2A7D2A612092DD2A7C2A622A2
:08093200120929C2A7C2A62286
:0E08F600D2A7D2A6C2D530A702D2D5C2A62262
:10088000780976087809E616601FEF548064807056
:1008900009120929C2A7C2A68009C2A7D2A61209B5
:0908A0002DC2A6EF25E0FF80DB6C
:0108A900222C
:1008AA00780876087808E6166017D2A7D2A6EF2548
:1008BA00E0FF30A70543070180035307FEC2A68065
:0108CA00E34A
:0108CB00220A
:10080000AE05AD071209047F901208801208F63079
:10081000D503D20022ED5477FF1208801208F6307B
:10082000D503D20022AF061208801208F630D50395
:10083000D200221208E712092D12092D12092D12D9
:03084000092D225D
:1008CC00758910E4FEEEC39F5010758DFC758B1866
:0A08DC00D28E308FFDC28F0E80EB2C
:0108E60022EF
:100843007C7DAD047F401208002091147F0A1208BA
:10085300CC20910CECF470047C7D800474052CFC9A
:100863002090137F0A1208CC20900BEC70047C7D3F
:0D087300800474FB2CFC7F011208CC80C5B2
:00000001FF
